:020000040800F2
:1000000058070020810200088D1200082D120008F8
:1000100089120008150800083114000800000000CB
:100020000000000000000000000000009512000821
:100030001908000800000000911200089912000839
:100040009B0200089B0200089B0200089B0200081C
:100050009B0200089B0200089B0200089B0200080C
:100060009B0200089B0200089B0200089B020008FC
:100070009B0200089B0200089B0200089B020008EC
:100080009B0200089B0200089B0200089B020008DC
:100090009B0200089B0200089B0200089B020008CC
:1000A0009B0200089B0200089B0200089B020008BC
:1000B0009B0200089B0200089B0200089B020008AC
:1000C0009B0200089B0200089B0200089B0200089C
:1000D0009B0200089B0200089B0200089B0200088C
:1000E0009B0200089B0200089B0200089B0200087C
:1000F0009B0200089B0200089B0200089B0200086C
:100100009B0200089B0200089B0200089B0200085B
:100110009B0200089B0200089B0200089B0200084B
:100120009B0200089B0200089B0200089B0200083B
:100130009B0200089B0200089B0200089B0200082B
:100140009B0200089B0200089B0200089B0200081B
:100150009B0200089B0200089B0200089B0200080B
:100160009B0200089B0200089B0200089B020008FB
:100170009B0200089B0200089B0200080000000090
:100180009B0200089B0200089B0200089B020008DB
:100190009B0200089B0200089B0200089B020008CB
:1001A0009B0200089B0200089B02000800F002F876
:1001B00000F057F814A696E8000CB244B344DA45B0
:1001C00001D100F04EF8BAE80F000FA696E8300013
:1001D000A5EB040504EB0607AAEB0704A7F101074A
:1001E0004FEA15154FEA3414A4F10104AC4201D3CF
:1001F00000F037F813F0010F18BFFB1A43F00103AA
:1002000000F001F8DBE718470C1500002C15000082
:10021000103A24BF78C878C1FAD8520724BF30C832
:1002200030C144BF04680C60704700007047000094
:100230000023002400250026103A28BF78C1FBD8EF
:10024000520728BF30C148BF0B607047642900F0D7
:10025000EF80002070471FB501F0C6F91FBD10B533
:1002600010BD00F09DFA1146FFF7F5FF01F0ECF824
:1002700000F0BBFA03B4FFF7F2FF03BC00F0C2FAD0
:100280000948804709480047FEE7FEE7FEE7FEE72A
:10029000FEE7FEE7FEE7FEE7FEE7FEE70448054966
:1002A000054A064B704700003D130008AD010008E9
:1002B0005801002058070020580300205803002050
:1002C00053EA020C00F069802DE9F04B4FF0000674
:1002D000002B1FBFB3FA83F503FA05F424FA05F6E1
:1002E0005E4012BF1643B2FA82F502FA05F4C5F178
:1002F00020051EBF22FA05FC44EA0C04203556EA0C
:10030000044C4FEA144418BF641C4FF000084FF02F
:100310000009904271EB030C39D3002919BFB1FADF
:1003200081F701FA07F6B0FA80F700FA07F6C7F18D
:1003300020071EBF20FA07FC46EA0C062037B6FB52
:10034000F4FCA7EB0507103F07F01F0BCBF12006CD
:100350002CFA06F60CFA0BFB44BFB3460026202FFE
:10036000A4BF5E464FF0000B5BEA060C08BF4FF0DF
:10037000010B19EB0B0948EB0608ABFB027C06FBF3
:1003800002CC0BFB03CCC01B71EB0C01C1E70B468D
:10039000024641464846BDE8F08B13B5084318BFF6
:1003A0004FF0FF300146AFF30080BDE81C407047BE
:1003B0000FB4044910B503AA029800F0B5F910BCB7
:1003C0005DF814FB040000202DE9F0410E460446C0
:1003D000002020622046E168884730B3252805D0F8
:1003E000D4E901219047206A401CF2E7E1682046E9
:1003F00000278847050018D0A5F14100192802D828
:1004000020354FF400673246294620462760FFF723
:100410001DFF40B1012804D0F61D26F0070608365E
:10042000D8E7361DD6E72846DAE7206ABDE8F0812E
:100430002DE9F0410646002410687529314616A5BD
:1004400010D0AFF30080002802DA404213A507E085
:1004500031688A0701D512A502E0490704D511A524
:10046000012401E0AFF3008000210A2206F12407F5
:1004700009E0B0FBF2FCB0FBF2F302FB1C003030F1
:1004800078541846491C0028F3D123462A463046A2
:10049000BDE8F04100F0EEB8000000002D000000C3
:1004A0002B000000200000002DE9FF5F1D464FF0EB
:1004B000FF3B91464FF000085F46D5E90146A96928
:1004C00001987F1C8847296A824688470028F6D110
:1004D000BAF1FF3F0CD0002E24F4C06419DD600691
:1004E00014D5BAF12B0F09D0BAF12D0F0ED103E0BC
:1004F000584604B0BDE8F09F44F48064A9690198AF
:100500007F1C8847761E8246002E02DDBAF1300F2E
:1005100003D0B9F1000F26D032E0A969761E019808
:100520007F1C44F400748847002E824605DDBAF132
:10053000780F06D0BAF1580F03D0B9F1000F10D0E0
:100540001EE0B9F1000F02D0B9F1100F18D1A9695E
:10055000761E01987F1C24F4007488478246102080
:1005600002E0082000E00A20814609E0A96908FBB2
:100570000908761E01987F1C44F40074884782465F
:10058000002E05DD4946504600F0E0F80028EDDA7F
:10059000E96901988847A00502D46FF00100A8E737
:1005A000E00725D1600613D5600502D5C8F100002B
:1005B00000E0404629680A1D2A600968220501D525
:1005C000087015E0220701D5088011E008600FE0EF
:1005D0002868011D29600068210502D580F8008087
:1005E00006E0210702D5A0F8008001E0C0F80080F5
:1005F00038467EE710B5044603E000F01BFF401CC0
:1006000009D014F8010B05490028F6D1BDE81040C7
:100610000A2000F00FBF4FF0FF3010BD0400002093
:100620004FF0000200B5134694469646203922BF8B
:10063000A0E80C50A0E80C50B1F12001BFF4F7AFD6
:10064000090728BFA0E80C5048BF0CC05DF804EBB8
:10065000890028BF40F8042B08BF704748BF20F826
:10066000022B11F0804F18BF00F8012B7047704724
:10067000704770472DE9F0470D469946924604466B
:1006800000F124080168880604D5E06921F0100112
:10069000216000E00120A84201DD471B00E00027A7
:1006A000A1697A1902EB0900081AA0612078C00636
:1006B00002D42046AFF30080002608E0D4E90121EF
:1006C0001AF806009047206A401C761C20624E45AE
:1006D000F4DB2078C0060AD52046AFF3008006E0A0
:1006E000D4E9012130209047206A401C2062381E46
:1006F000A7F10107F4DC07E0D4E9012118F80500AF
:100700009047206A401C2062281EA5F10105F3DCF9
:100710002046AFF300802078000602D50220BDE815
:10072000F0870120FBE70000074B70B50D467B44C6
:1007300000F023F80446284600F016F810B14FF0F8
:10074000FF3070BD204670BD030D00003A2800D276
:10075000303820F02002412A01D3A2F1370088422C
:1007600001D34FF0FF307047007B00F080007047EE
:1007700001694A1C02610878704700B58FB0CDE965
:1007800001310021059105497944CDE90310114655
:100790006846FFF719FE0FB000BD0000E5FFFFFF40
:1007A000754600F02BF8AE4605006946534620F02A
:1007B0000700854618B020B5FFF770FDBDE8204062
:1007C0004FF000064FF000074FF000084FF0000B0D
:1007D000AC46ACE8C009ACE8C009ACE8C009ACE87C
:1007E000C00921F007018D46704710B50446AFF3EC
:1007F00000802046BDE81040FFF73CBD0048704730
:100800006000002001491820ABBEFEE72600020070
:1008100070470000FEE70000704700002DE9F04F30
:1008200083B000F1200200F13E4742F20045009201
:1008300007F1FF77C4F202050A224FEAB726A84261
:1008400008BF0922092E38BF4FEAB72200274FF010
:10085000000A4FF0000801920AE000BF08F1010809
:100860000AF1020AB8F1100F07F1040700F09D80A9
:100870000D68012202FA08FC15EA0C09EED04D6859
:10088000032205F0030BABF10106012E02FA0AFE6A
:1008900010D88668CC6826EA0E0604FA0AF43443B7
:1008A00084604468C5F3001524EA0C0605FA08F5CF
:1008B0002E434660BBF1030F1BD0C6688D6826EA45
:1008C0000E0605FA0AF52E43BBF1020FC66010D1E1
:1008D0006FF00302009D02EA580655F806C007F0C3
:1008E0001C040F220B69A2402CEA0202A3401A4307
:1008F000AA5102684B6822EA0E0203F0030606FAC8
:100900000AF6324313F4403F0260A7D0002243F6B8
:1009100044030292C4F202031A6843F6004442F40C
:1009200080421A601A68C4F2010402F48042029202
:10093000029A28F003024FF6084C2244CFF6FF7CBF
:1009400052F80C3007F00C060F25B540AB43019D63
:1009500005FA06F6334342F80C30A2684B6842EAC7
:10096000090643F60C4CDD0258BF22EA0906A660D0
:10097000C4F2010CDCF800209D0242EA090658BFCF
:1009800022EA0906CCF8006062689D0342EA090683
:1009900058BF22EA090666602268DB0342EA0906BC
:1009A00058BF22EA0906266058E703B0BDE8F08F79
:1009B0000069084018BF012070470000002A08BFE6
:1009C000090481617047000040F25410C2F2000037
:1009D0000068704740F2580040F25411C2F2000023
:1009E000C2F2000100780A681044086070470000F5
:1009F00080B543F60040C4F20200016841F4007182
:100A00000160016841F480610160016841F4807116
:100A10000160032000F078F80F2000F005F800F0E6
:100A20002BF8002080BD0000B0B540F25802C2F2A1
:100A3000000240F200011278C2F200014FF47A7312
:100A40000968B3FBF2F20446B1FBF2F1084600F08C
:100A500027FB0F2C4FF001050CD858B94FF0FF3091
:100A600021460022002500F023F840F25C00C2F28B
:100A7000000004602846B0BD82B0002043F640016B
:100A80000190C4F202014A6842F480424A604A6816
:100A900002F480420192019A0090086840F0805070
:100AA0000860086800F080500090009802B070471D
:100AB00010B54EF60C5CCEF2000CDCF80030C3F33F
:100AC000022E8EF00704042C28BF0424BEF1030379
:100AD0004FF0FF3E0EFA04F438BF0023A1439940C3
:100AE0000EFA03F39A43114300F1604200F00F0342
:100AF000090102F56442043B6344002848BF03F146
:100B00000C02117010BD00004EF60C51CEF2000127
:100B10000A684FF6FF031A4060F30A2242F0806031
:100B200040F0FD7008607047002804BF0120704746
:100B30002DE9F04143F60808C4F202080446D8F84B
:100B4000F8030D4600F00F00814207D988F8F853EA
:100B5000D8F8F80300F00F00A84276D1206881078A
:100B600017D5410705D5D8F8001041F4E051C8F871
:100B70000010010705D5D8F8001041F46041C8F80D
:100B80000010D8F80010A26821F0F0011143C8F855
:100B90000010C0073FD1D8F8F80300F00F008542DD
:100BA00007D288F8F853D8F8F80300F00F00A842ED
:100BB0004BD12068410707D5D8F80010E26821F42E
:100BC000E0511143C8F80010000708D5D8F800001C
:100BD000216920F4604040EAC100C8F8000000F03C
:100BE0007BF8D8F8001041F20262C1F30311C0F69D
:100BF0000002515C40F2000220FA01F140F25C0078
:100C0000C2F200000068C2F200021160FFF70CFFA0
:100C10000020BDE8F0816068811E022907D258F8E3
:100C2000081C89015CBF0120BDE8F08110E00128AB
:100C300007D158F8081C89035CBF0120BDE8F0818A
:100C400006E058F8081C890702D40120BDE8F081AD
:100C5000D8F8001021F003010843C8F80000FFF79E
:100C6000B3FE064641F28837D8F80000616800F00C
:100C70000C00B0EB810F8ED0FFF7A6FE801BB842B0
:100C8000F2D90320BDE8F08140F2000043F60801EC
:100C9000C2F20000C4F202010068096841F2126267
:100CA000C1F38221C0F60002515CC84070470000C9
:100CB00040F2000043F60801C2F20000C4F2020153
:100CC0000068096841F21262C1F34231C0F60002C5
:100CD000515CC8407047000010B543F60404C4F2EC
:100CE00002046168C1F3810142F20040C0F2F400E5
:100CF000DFE801F00203080210BD41F20020C0F25B
:100D00007A0010BD216801F03F0221682368490282
:100D1000C3F3881105D4A1FB00010023FFF7D0FA2B
:100D200006E041F20020C0F27A004843B0FBF2F046
:100D300021680222C1F3014102EB4101B0FBF1F055
:100D400010BD0000002804BF012070472DE9F041CC
:100D500082B00446007843F60006C007C4F20206DB
:100D600049D0B06800F00C00042809D13068800335
:100D700041D5606800283ED1012002B0BDE8F08175
:100D8000B06800F00C00082802D170684002EDD471
:100D900065683068B5F5A02F05D0B5F5803F09D15D
:100DA00040F480300CE040F480203060306840F443
:100DB000803005E020F480303060306820F48020FE
:100DC0003060FFF701FE002D054611D0306880032A
:100DD00011D4FFF7F9FD401B6428F7D928E100BFC3
:100DE000FFF7F2FD401B64284FF0030000F2E080A3
:100DF00030688003F4D4207880071BD5B06810F0E9
:100E00000C0F09D0B06800F00C00082840F0858075
:100E10007068400200F181803068800703D5E06887
:100E2000012840F09A803068216920F0F80040EAFB
:100E3000C10030602078000734D42078400746D4C1
:100E4000A5695DB3B06800F00C00082840F09C80F4
:100E5000012D00F082807068E16900F480028A420E
:100E60007BD1216A00F03F028A4276D147F6C071F9
:100E7000626A0140B1EB821F6FD1A16A4FF6FF7326
:100E8000C903994300F44032A1F580318A4264D10C
:100E9000E16A00F07060B0EB016F5ED1002002B03B
:100EA000BDE8F081606900285BD00020C4F24720D3
:100EB0000121C0F8801EFFF787FD0546706F80078F
:100EC000BBD4FFF781FD401B0228F7D9B0E0306C9E
:100ED0005FEAC0080AD400200190306C40F08050D6
:100EE0003064306C00F080500190019847F20007A8
:100EF000C4F200073868C00526D4386840F4807012
:100F00003860FFF761FD05463868C0051CD4FFF75F
:100F10005BFD401B0228F7D98AE0E068002840F218
:100F20000000C4F2472053D001210160FFF74CFDBF
:100F3000054600BF306880073FF575AFFFF744FDF9
:100F4000401B0228F6D973E0A568306F052D51D0FB
:100F5000012D56D140F0010059E0012002B0BDE85A
:100F6000F0810020C4F247200021C0F8801EFFF766
:100F70002BFD0546706F80077FF55FAFFFF724FDFF
:100F8000401B0228F6D953E00027C4F2472700206F
:100F90003866FFF719FD022D05460DD13068800136
:100FA0005DD5FFF711FD401B02284FF00300F5D976
:100FB00002B0BDE8F08100BF306880017FF56EAF00
:100FC000FFF702FD401B02284FF00300F4D9EFE7C2
:100FD00000210160FFF7F8FC054600BF306880077C
:100FE0007FF528AFFFF7F0FC401B02284FF003000D
:100FF000F4D9DDE740F004003067306F40F00100C5
:1010000005E020F001003067306F20F00400306709
:10101000FFF7DAFC002D054641F2883713D000BFF8
:10102000306F800712D4FFF7CFFC401BB842F7D9CE
:10103000032002B0BDE8F081FFF7C6FC401BB842B8
:101040004FF00300B4D8306F8007F5D4B8F1000F2B
:101050003FF5F6AE306C20F080503064F0E604F1DD
:101060001C052FCD084340EA8210D9034FF6FF72CA
:101070009143A1F5803140EA05600843706001208A
:101080003866FFF7A1FC0446306880013FF506AFE3
:10109000FFF79AFC001B02284FF00300F4D987E702
:1010A000411E0020B0EB116F1CBF012070474EF2B3
:1010B0001002CEF2000251604EF62351CEF2000132
:1010C000F0230B700721906011607047002804BF67
:1010D0000120704710B5044690F8410028B900205F
:1010E00084F84000204600F021F8242084F84100D4
:1010F0002068C16821F40051C160204600F028F941
:101100002068016921F490410161416921F02A01BF
:101110004161C16841F40051C16000202021606438
:1011200084F8411084F84210606310BD2DE9F0414D
:1011300086B0006841F20002C4F201020021904230
:10114000CDE90411CDE90211019143D045F200012E
:10115000C4F20001884265D1002443F630000094B7
:10116000C4F202000169002541F4801101610169A6
:10117000C4F2020501F48011009100990094016805
:101180004FF0020841F0040101600168032601F0FC
:1011900004010091009900940168082741F00801BA
:1011A0000160006801A900F00800009000984FF469
:1011B0008050019005F50060CDE902840496059702
:1011C000FFF72CFB0420CDE9010803A8D0C005F5EA
:1011D000406024E043F630000091C4F2020042690E
:1011E00042F010024261426902F010020092009A3D
:1011F0000091026842F001020260006800F0010004
:10120000009000984FF4C06001900220CDE90201E7
:1012100003200490072005900020C4F2020001A9D9
:10122000FFF7FCFA06B0BDE8F0810000FEE7000021
:10123000017042707047000010B504460078032822
:1012400005D804A151F820006178FFF7B1F8607863
:1012500010BD00BFB3160008D21600081A16000809
:10126000F316000802784170032A88BF704702A075
:1012700050F82200FFF79CB83D16000876160008CB
:101280009416000859160008FEE70000FEE700006B
:101290007047000070470000FFF79CBB70B592B02C
:1012A00006AC20463021FFF7BBF9002543F640008D
:1012B0000595CDE90355CDE901550095C4F202002D
:1012C0000168012241F0805101600068022600F0AF
:1012D00080500090009847F200000095C4F2000092
:1012E000016862F38F3101600068502100F44040D2
:1012F000009000984FF4803007904FF480000D90DC
:1013000004200E901190204606920C96CDE90F16FF
:10131000FFF718FD08B172B6FEE70F20CDE9010610
:101320008020CDE9030501A801210595FFF7FCFB0D
:1013300008B172B6FEE712B070BD00004EF68850DC
:10134000CEF20000016841F47001016070470000B6
:10135000B0B50446006804F108030ECB05691943D3
:1013600025F440552A4302616269E3691143C2686A
:10137000194349F20C639A431143C1604169A26960
:1013800021F4407141F20043114340F48062C4F201
:1013900001039A42416102D1FFF78AFC01E0FFF7A5
:1013A00073FCE1694FF69C7563681922C0F6FF75FE
:1013B000B1F5004FA0FB02011CD15A00DB0FFEF774
:1013C0007FFF48F21F51C5F2EB11A0FB01235A0920
:1013D00005F1805302FB0300322303EBC000A0FBA6
:1013E00001014FF4F87000EA111000EB0210C1F394
:1013F000421118E09A009B0FFEF762FF48F21F515E
:10140000C5F2EB11A0FB01235A0902FB05003223B0
:1014100003EB0010A0FB0101F02000EA511000EBEB
:101420000210C1F34311084421688860B0BD000078
:10143000FEE7000041F20001C4F201010A68120651
:10144000FCD5C2B24A60704786B041F60004C4F2CF
:101450000204FFF7CDFAFFF721FF002743F6300023
:101460000597CDE90377CDE901770097C4F2020033
:101470000168002241F08001016001684FF4C0481A
:1014800001F08001009100990097016841F001018D
:101490000160016801F00101009100990097016865
:1014A00041F004010160016801F00401009100991C
:1014B0000097016841F008010160016801F008012E
:1014C000009100990097016841F0400101600168B6
:1014D00001F04001009100990097016841F002017C
:1014E000016000684FF4C04100F0020000900098D5
:1014F0002046FFF763FAA4F5C05501AE4FF001098D
:1015000028463146CDE901970397FFF787F9204632
:101510003146CDE90189CDE90377FFF77FF940F244
:101520000810A4F5E431C2F200004FF00C084FF4AB
:10153000E13680E8C200C0E90377C0E90587C761EA
:10154000FFF7C4FD08B172B6FEE740F2C000A4F593
:101550008431C2F2000080E8C200C0E90377C0E92C
:101560000587C761FFF7B2FD08B172B6FEE716A0A6
:10157000FFF740F840F25016C2F200063046002154
:101580000022FFF755FE40F25217C2F2000738461C
:1015900003210122FFF74CFE3046FFF74DFE38468F
:1015A000FFF74AFE30460121FFF75CFE2846012185
:1015B000FFF7FEF90246002820464FF4005118BFFD
:1015C0000122FFF7FBF9F1E748656C6C6F20746846
:1015D0006572652066726F6D206D61696E2066753B
:1015E0006E6374696F6E0000F1EE100A4FF6FF71C2
:1015F000C0F2C03120EA010040F04070E1EE100A74
:10160000704700000000000000000102030406070C
:1016100008090000000001020304546865205945D0
:101620004C4C4F57204C656420697320637572657C
:10163000656E746C7920202564200A0D005468655D
:1016400020524544204C65642069732073657420E2
:10165000746F202564200A0D0054686520424C55A3
:1016600045204C65642069732073657420746F2075
:101670002564200A0D0054686520475245454E20D8
:101680004C65642069732073657420746F20256431
:10169000200A0D005468652059454C4C4F57204C8A
:1016A00065642069732073657420746F202564203D
:1016B0000A0D0054686520524544204C6564206939
:1016C000732063757265656E746C79202564200AD9
:1016D0000D0054686520475245454E204C656420F6
:1016E00069732063757265656E746C79202564205A
:1016F0000A0D0054686520424C5545204C65642015
:1017000069732063757265656E746C792025640A4F
:101710000D000000341700080000002060000000E9
:10172000100200089417000860000020F80600006E
:10173000300200080024F400010000000000000056
:101740000000000000000000000000000000000099
:101750000000000000000000000000000000000089
:101760000000000000000000000000000000000079
:101770000000000000000000000000000000000069
:101780000000000000000000000000000100000058
:041790001000000045
:04000005080002816C
:00000001FF
